:020000000001FD
:0200010000807D
:020002000254A6
:02000300026594
:02000400026D8B
:02000500027087
:020006000220D6
:020007000223D2
:020008000223D1
:020009000223D0
:02000A00022EC4
:02000B000223CE
:02000C000220D0
:02000D0002DF10
:02000E000243AB
:02000F0000C02F
:0200100002509C
:02001100027279
:02001200026585
:02001300027376
:020014000220C8
:020015000223C4
:020016000223C3
:020017000223C2
:020018000223C1
:020019000223C0
:02001A000223BF
:02001B000220C1
:02001C00025090
:02001D0002617E
:02001E0000944C
:02001F00024895
:02002000027567
:02002100026D6E
:020022000220BA
:020023000220B9
:020024000223B5
:020025000223B4
:020026000225B1
:020027000000D7
:020028000000D6
:020029000000D5
:02002A000000D4
:02002B000000D3
:02002C000000D2
:02002D000000D1
:02002E000000D0
:02002F000000CF
:020030000000CE
:020031000000CD
:020032000000CC
:020033000000CB
:020034000000CA
:020035000000C9
:020036000000C8
:020037000000C7
:020038000000C6
:020039000000C5
:02003A000000C4
:02003B000000C3
:02003C000000C2
:02003D000000C1
:02003E000000C0
:02003F000000BF
:00000001FF
